:100000000C9474020C9491020C9491020C94910241
:100010000C9491020C9491020C9491020C94910214
:100020000C9491020C9491020C945A150C94951511
:100030000C9491020C9491020C9491020C949102F4
:100040000C9491020C9491020C9491020C949102E4
:100050000C9402030C9491020C9491020C94910262
:100060000C9491020C9491020C9491020C949102C4
:100070000C9491020C9491020C9491020C949102B4
:100080000C9491020C9491020C9491020C949102A4
:100090000C9491020C9491020C9491020C94910294
:1000A0000C9491020C9491020C94910240153D1510
:1000B0003A153715341531152E152B15281525151C
:1000C00022151F151C1519151615131510150D15CC
:1000D0000A15071504150115FE14FB14F814F51480
:1000E000F214EF14EC14E914E614E314E014DD1434
:1000F000DA14D714D414D114CE14CB14C814C514E4
:10010000C214BF14BC14B914B614B314B014AD1493
:10011000AA14A714A414A1149E149B149814951443
:1001200092148F148C14891486148314801440E064
:1001300040A0E0A0E0FFC0FFC0AAAA555500000003
:10014000000000005F00000007000700147F147F1C
:1001500014242A7F2A122313086462364955225038
:100160000005030000001C2241000041221C001475
:10017000083E081408083E0808005030000008082F
:10018000080808006060000020100804023E514981
:10019000453E00427F400042615149462141454B66
:1001A000311814127F1027454545393C4A494930DA
:1001B00001710905033649494936064949291E0096
:1001C0003636000000563600000814224100141490
:1001D000141414004122140802015109063249790D
:1001E000413E7E1111117E7F494949363E414141D0
:1001F000227F4141221C7F494949417F0909090168
:100200003E4149497A7F0808087F00417F4100202C
:1002100040413F017F081422417F404040407F021F
:100220000C027F7F0408107F3E4141413E7F090957
:1002300009063E4151215E7F09192946464949492F
:100240003101017F01013F4040403F1F2040201FFE
:100250003F4038403F631408146307087008076183
:1002600051494543007F41410002040810200041EC
:10027000417F00040201020440404040400001026E
:10028000040020545454787F48444438384444444B
:1002900020384444487F3854545418087E090102D9
:1002A0000C5252523E7F0804047800447D400020E6
:1002B00040443D007F1028440000417F40007C0402
:1002C0001804787C0804047838444444387C1414B6
:1002D0001408081414187C7C080404084854545466
:1002E00020043F4440203C4040207C1C2040201CF7
:1002F0003C4030403C44281028440C5050503C4472
:1003000064544C44000836410000007F0000004166
:1003100036080010080810087846414678000100A9
:10032000005103120002000063034300030000A613
:10033000030401030904AA031402030904C00316F9
:1003400003030904D8030C0001C1120180360181A6
:10035000361201000202000010C0167A04000101EA
:1003600002030109024300020100C0320904000037
:10037000010202010005240010010524010101040D
:100380002402060524060001070582031000400927
:10039000040100020A0000000705030240000007F4
:1003A00005840240000004030904140359006F008F
:1003B0007500720020004E0061006D0065000000B5
:1003C00016035500530042002000530065007200E0
:1003D000690061006C0000000C0331003200330042
:1003E0003400350000006E616E00696E66000040EA
:1003F0007A10F35A00A0724E18090010A5D4E80034
:1004000000E87648170000E40B54020000CA9A3B4B
:10041000000000E1F50500008096980000004042D1
:100420000F000000A086010000001027000000005F
:10043000E803000000006400000000000A00000063
:1004400000000100000000002C76D888DC674F080F
:1004500023DFC1DFAE59E1B1B796E5E3E453C63A15
:10046000E651997696E8E6C28426EB898C9B62ED8C
:10047000407C6FFCEFBC9C9F40F2BAA56FA5F49046
:10048000055A2AF75C936B6CF9676DC11BFCE0E4BD
:100490000D47FEF520E6B500D0ED902E0300943513
:1004A00077050080841E080000204E0A000000C866
:1004B0000C333333330F986E12831141EF8D2114B7
:1004C000893BE65516CFFEE6DB18D1844B381BF787
:1004D0007C1D901DA4BBE424203284725E22810026
:1004E000C9F124ECA1E53D2711241FBECFEFDAE0CE
:1004F000DEBFCDBF12E0A0E0B1E0ECE6F1E402C067
:1005000005900D92AC3EB107D9F717E0ACEEB2E022
:1005100001C01D92A935B107E1F70E94F4110C94B6
:10052000B4200C94000095B18295880F807E9F7D49
:10053000982B95B95F9827E030E070E08F98CB0159
:10054000022E02C0959587950A94E2F780FF02C0BB
:100550002E9A01C02E988F9A215030408FEF2F3F56
:10056000380761F75F9A08951F93182F579A249AB6
:10057000259A269A879A2C985F9A2C9A80E061E2B5
:100580000E949302106880E0612F0E94930280E035
:1005900064E00E94930280E063E10E94930280E0A5
:1005A0006CE00E94930280E060E20E94930280E08F
:1005B0006CE00E94930280E060E40E94930280E07D
:1005C00060E80E9493021F910895CF93DF93C0E0EB
:1005D000D0E081E060E00E949302219681E0C83F74
:1005E000D807B9F7DF91CF9108951F93182F606452
:1005F00080E00E949302106880E0612F0E949302C5
:100600001F9108951F920F920FB60F9211248F938E
:100610009F93AF93BF938091150390911603A09180
:100620001703B09118030196A11DB11D8093150306
:1006300090931603A0931703B0931803BF91AF9143
:100640009F918F910F900FBE0F901F90189521983A
:1006500050985198279820988698859822982398A2
:10066000089580917C00887F80937C0080917C003D
:10067000816080937C0080917A00806480937A000E
:1006800080917A0086FDFCCF20917800309179002E
:10069000C90108950E943103AA2797FDA095BA2F9A
:1006A000BC01CD010E948B1B2EE034E74AED50E4E3
:1006B0000E94F01A20E030E048EC52E40E94F01A68
:1006C0006093FC027093FD028093FE029093FF0200
:1006D00008952F923F924F925F926F927F928F92E6
:1006E0009F92AF92BF92CF92DF92EF92FF920F93C1
:1006F0001F93DF93CF9300D000D0CDB7DEB78091AA
:10070000590590E08090D2029090D3024090D002A0
:100710005090D10238E0632E35E0732E2AE3222E6A
:1007200023E0322E9C01442737FD4095542F298326
:100730003A834B835C83F101E588F6880789108D45
:10074000C801B70120E030E04CE452E40E94EC1A0A
:1007500088230CF058C0C801B70120E030E040E128
:1007600051E40E943B1C18160CF04DC0F101A18C05
:10077000B28CC38CD48CC601B50120E030E040E2DD
:1007800051E40E94EC1A8823A1F4F30180818823AC
:1007900081F0C801B7010E94581B2B0169817A8141
:1007A0008B819C810E948B1B9B01AC01C601B50112
:1007B00025C0F101618D728D838D948D20E030E034
:1007C00040E251E40E94EC1A8823E9F4F3018081AD
:1007D0008823C9F4F10160817181828193810E9433
:1007E000581B2B0169817A818B819C810E948B1B14
:1007F0009B01AC0160E070E080E291E40E94871A06
:100800000E94581B4B010894611C711C25E130E0CB
:10081000220E331E3DE1631635E0730609F08BCFDF
:100820009092D3028092D2025092D1024092D00292
:100830000F900F900F900F90CF91DF911F910F911C
:10084000FF90EF90DF90CF90BF90AF909F908F90F0
:100850007F906F905F904F903F902F900895BF9240
:10086000CF92DF92EF92FF920F931F93DF93CF937C
:10087000CDB7DEB7BAA86C857D858E859F850E9431
:10088000581B8B0169A17AA18BA19CA10E94581BC6
:100890006B01688979898A899B890E94581B7B0131
:1008A0006DA17EA18FA198A50E94581B8C8DA801D7
:1008B000480F511D89A99601280F311D8D8DF70113
:1008C000E80FF11DCF014C155D051CF0241735070D
:1008D00034F40C151D054CF02017310734F0861741
:1008E000970719F423E030E030C06B0D711DE61658
:1008F000F70649F40C151D0534F0201731079CF05C
:1009000022E030E022C00217130769F4E016F10676
:1009100051F48E159F0539F481E090E09093D50253
:100920008093D4020DC04C155D0569F4E416F506FC
:1009300051F48017910739F41092D5021092D40225
:1009400021E030E002C020E030E0C901CF91DF912A
:100950001F910F91FF90EF90DF90CF90BF9008957F
:10096000CF92DF92EF92FF920F931F93CF93DF937B
:10097000C0E0D0E005E110E00F2EF0E0CF2EF0E077
:10098000DF2EF0E0EF2EF0E0FF2EF02D2DB73EB77A
:100990002A5230400FB6F8943EBF0FBE2DBF2F5FD6
:1009A0003F4FD901E8E4F5E085E101900D928150D7
:1009B000E1F7C09FF001C19FF00DD09FF00D112411
:1009C000D9015596E15BFC4F85E101900D92815074
:1009D000E1F70E942F042DB73EB7265D3F4F0FB6BB
:1009E000F8943EBF0FBE2DBF892B09F47BC08DB795
:1009F0009EB78A970FB6F8949EBF0FBE8DBF2DB7D6
:100A00003EB72F5F3F4FD901E8E4F5E085E1019063
:100A10000D928150E1F785E190E0C89FF001C99FF8
:100A2000F00DD89FF00D1124D9015596E15BFC4FD4
:100A300085E101900D928150E1F70E942F042DB7BE
:100A40003EB7265D3F4F0FB6F8943EBF0FBE2DBF99
:100A50000397B1F48091D902882391F4FE01E85FF5
:100A6000FA4F8081882361F08091080390910903F7
:100A70000196909309038093080381E08093D90243
:100A80008DB79EB78A970FB6F8949EBF0FBE8DBFE5
:100A90002DB73EB72F5F3F4FD901E8E4F5E085E180
:100AA00001900D928150E1F785E190E0C89FF0013F
:100AB000C99FF00DD89FF00D1124D9015596E15B27
:100AC000FC4F85E101900D928150E1F70E942F04C7
:100AD0009C018DB79EB78A960FB6F8949EBF0FBE45
:100AE0008DBFD8C02DB73EB72A5230400FB6F8940C
:100AF0003EBF0FBE2DBF2F5F3F4FD901E8E4F5E0A9
:100B000085E101900D928150E1F7C09FF001C19FF6
:100B1000F00DD09FF00D1124D9015596E15BFC4FEB
:100B200085E101900D928150E1F70E942F042DB7CD
:100B30003EB7265D3F4F0FB6F8943EBF0FBE2DBFA8
:100B40000197C1F58091D4029091D5028130910531
:100B500099F4609148057091490580914A059091FA
:100B60004B052091FC023091FD024091FE02509114
:100B7000FF020E94881A15C0892B09F084C0609179
:100B800048057091490580914A0590914B05209147
:100B9000FC023091FD024091FE025091FF020E9442
:100BA000871A609348057093490580934A0590938E
:100BB0004B0569C08DB79EB78A970FB6F8949EBF54
:100BC0000FBE8DBF2DB73EB72F5F3F4FD901E8E471
:100BD000F5E085E101900D928150E1F7C09FF001B1
:100BE000C19FF00DD09FF00D1124D9015596E15B06
:100BF000FC4F85E101900D928150E1F70E942F0496
:100C00002DB73EB7265D3F4F0FB6F8943EBF0FBEDF
:100C10002DBF019749F0C0925005D0925105E09246
:100C20005205F09253052FC08DB79EB78A970FB625
:100C3000F8949EBF0FBE8DBF2DB73EB72F5F3F4FBD
:100C4000D901E8E4F5E085E101900D928150E1F7EA
:100C5000C09FF001C19FF00DD09FF00D1124D9016C
:100C60005596E15BFC4F85E101900D928150E1F7D3
:100C70000E942F042DB73EB7265D3F4F0FB6F89464
:100C80003EBF0FBE2DBF2196C531D10509F07ECEE6
:100C900020E030E0C901DF91CF911F910F91FF90CB
:100CA000EF90DF90CF9008950F931F93CF93DF9332
:100CB000C0E0D0E005E110E02DB73EB72A52304049
:100CC0000FB6F8943EBF0FBE2DBF2F5F3F4FD90127
:100CD000E8E4F5E085E101900D928150E1F7C09FD5
:100CE000F001C19FF00DD09FF00D1124D901559650
:100CF000E15BFC4F85E101900D928150E1F70E948C
:100D00002F042DB73EB7265D3F4F0FB6F8943EBF78
:100D10000FBE2DBF892B49F090E0C85FDA4F888164
:100D2000882309F491E0892F04C02196C531D105AB
:100D300019F6DF91CF911F910F910895AF92BF9255
:100D4000CF92DF92EF92FF920F931F9380910E0349
:100D50008823E9F5609115037091160380911703BC
:100D600090911803E0908400F09085000E94891B08
:100D700020E030E040E857E40E943F1C5B016C013A
:100D800000E010E0C801B7010E94891B9B01AC0183
:100D9000C601B5010E94881A2DEB37E346E054E303
:100DA0000E943F1C2091F8023091F9024091FA0212
:100DB0005091FB020E94871A9B01AC012093F40220
:100DC0003093F5024093F6025093F70200C01F9152
:100DD0000F91FF90EF90DF90CF90BF90AF9008956C
:100DE000EF92FF920F931F93E090F402F090F502C0
:100DF0000091F6021091F702C801B70120E030E03F
:100E000040E752E40E94F01A0E94581B70930B03B3
:100E100060930A032CE330E0AB01249FB001259FCF
:100E2000700D349F700D1124882777FD8095982FC1
:100E30000E948B1B9B01AC01C801B7010E94871A5D
:100E40000E94581B70930D0360930C031F910F9128
:100E5000FF90EF9008956F927F928F929F92AF9242
:100E6000BF92CF92EF92FF920F931F932DB73EB791
:100E70002A5230400FB6F8943EBF0FBE2DBF2F5FF1
:100E80003F4FD901E8E4F5E085E101900D928150F2
:100E9000E1F7D9015596E3E3F5E085E101900D9284
:100EA0008150E1F70E942F042DB73EB7265D3F4FDA
:100EB0000FB6F8943EBF0FBE2DBF181619060CF0E2
:100EC00060C08091CE029091CF0202969093CF02A3
:100ED0008093CE0282E391E063E070E00E94E01232
:100EE0005C0183E395E040E050E060E070E000E00A
:100EF00010E020E732E4B3E0EB2EA3E0CA2E0E941C
:100F0000011382E391E063E070E00E94E0120E942E
:100F1000F61D1092450581E0809313036091D00285
:100F20007091D102882777FD8095982F0E948B1BA6
:100F30003B014C016091D2027091D302882777FD6A
:100F40008095982F0E948B1B7B018C018EE291E093
:100F500064E070E00E94E0125C0188E495E0B40176
:100F6000A30198018701F3E0EF2EE4E0CE2E0E946A
:100F700001138EE291E064E070E00E94E0120E94B2
:100F8000F61D1F910F91FF90EF90CF90BF90AF9003
:100F90009F908F907F906F9008956F927F928F9225
:100FA0009F92AF92BF92CF92EF92FF920F931F93B7
:100FB0006091D0027091D102882777FD8095982F9B
:100FC0000E948B1B3B014C016091D2027091D302B5
:100FD000882777FD8095982F0E948B1B7B018C01C1
:100FE0008EE291E064E070E00E94E0125C0188E42F
:100FF00095E0B401A30198018701A3E0EA2EF4E093
:10100000CF2E0E9401138EE291E064E070E00E9416
:10101000E0120E94F61D82E391E063E070E00E941E
:10102000E0125C0183E395E040E050E060E070E0B6
:1010300000E010E024E332E4E3E0CE2E0E9401134E
:1010400082E391E063E070E00E94E0120E94F61DEE
:1010500032C080E090E060E070E040E051E021E0EC
:101060000E94AA1280E090E06AE070E04CE051E05B
:1010700021E00E94AA1280E090E064E170E046E185
:1010800051E021E00E94AA1280E090E06EE170E061
:1010900043E251E021E00E94AA1280913105909133
:1010A00032058337910511F07E9B03C081E0809368
:1010B00010030E94CD1280911003882351F21F91DA
:1010C0000F91FF90EF90CF90BF90AF909F908F9037
:1010D0007F906F9008958FE20E94B4020E94CD121B
:1010E0000E94D6130E94EF138823E1F308952F92F4
:1010F0003F924F925F926F927F928F929F92AF92A8
:10110000BF92CF92DF92EF92FF920F931F93DF93E4
:10111000CF9300D000D0CDB7DEB7DD24D394CFC0BD
:101120001092050310920403109207031092060315
:1011300019E0412E15E0512EB4E62B2EB3E03B2EE4
:1011400081E090E09C838B830E949F1E67E070E0AB
:101150000E94EB1C0697B4F48B819C8165E070E0E3
:101160000E94EB1C892B29F18091060390910703C3
:1011700001969093070380930603F201D08285E3E2
:1011800091E015C08B819C8165E070E00E94EB1CB2
:10119000892B79F080910403909105030196909337
:1011A000050380930403F201108289E391E09A839E
:1011B00089838B819C8165E070E00E94EB1C00912B
:1011C000CA021091CB02892B99F5F201D082B801A5
:1011D000882777FD8095982F0E948B1B7B018C01BF
:1011E00085E391E064E070E00E94E0125C01C101DF
:1011F00040E050E060E371EC98018701AAE0EA2E3C
:10120000F2E0CF2E0E94011382E391E064E070E0EF
:101210000E94E0120E94F61D8091CA029091CB02BA
:101220000A969093CB028093CA028AE090E034C081
:101230006091CC027091CD02882777FD8095982F20
:101240000E948B1B3B014C01B801882777FD8095DC
:10125000982F0E948B1B7B018C0189819A8164E00D
:1012600070E00E94E0125C01C101B401A301980189
:101270008701EAE0EE2EB2E0CB2E0E9401138981B5
:101280009A8164E070E00E94E0120E94F61D809155
:10129000CC029091CD0245969093CD028093CC02E2
:1012A000EB81FC813196FC83EB830894411C511C3B
:1012B00085E190E0280E391E759709F045CF8091A1
:1012C00004039091050303973CF4809106039091E9
:1012D000070308970CF424CF0F900F900F900F90F6
:1012E000CF91DF911F910F91FF90EF90DF90CF9002
:1012F000BF90AF909F908F907F906F905F904F9036
:101300003F902F9008954F925F926F927F928F92AD
:101310009F92AF92BF92CF92DF92EF92FF920F9384
:101320001F93DF93CF9300D000D0CDB7DEB76C0111
:10133000DC01ED90FD900D911C91C801B7010E9458
:10134000A21C4B015C01D60114968D919D910D90CC
:10135000BC91A02D89839A83AB83BC83C801B7015C
:10136000F60120853185428553850E94881A7B01CC
:101370008C01D6016D937D938D939C931397698116
:101380007A818B819C811C962D913D914D915C9130
:101390001F970E94881A2B013C01CB01D301F60153
:1013A00084839583A683B783C801B7010E94A21CDA
:1013B0000E94581B7B018C01C501B4010E94581B7F
:1013C000E616F706E9F4B201C3010E94A21C7B01F4
:1013D0008C0169817A818B819C810E94A21C5B01B6
:1013E0006C0166247724C801B7010E94581B7B0159
:1013F0008C01C601B5010E94581BE616F70619F0CC
:1014000001E0602E712C862D0F900F900F900F90A1
:10141000CF91DF911F910F91FF90EF90DF90CF90D0
:10142000BF90AF909F908F907F906F905F904F9004
:1014300008956F927F928F929F92AF92BF92CF92B8
:10144000DF92EF92FF920F931F9360914C05709182
:101450004D0580914E0590914F0520E030E044E429
:1014600052E40E943B1C87FF21C0E0904805F090A9
:10147000490500914A0510914B05C801B70120E0CC
:1014800030E048EA52E40E943B1C18167CF0C80188
:10149000B70120E030E040E050E00E94EC1A87FD08
:1014A00005C00E945406882309F443C06091D0020D
:1014B0007091D102882777FD8095982F0E948B1B11
:1014C0003B014C016091D2027091D302882777FDD5
:1014D0008095982F0E948B1B7B018C018EE291E0FE
:1014E00064E070E00E94E0125C0188E495E0B401E1
:1014F000A30198018701F3E0EF2EE4E0CE2E0E94D5
:1015000001138EE291E064E070E00E94E0120E941C
:10151000F61D80911203882349F48091CE029091A8
:10152000CF0201979093CF028093CE0281E0809307
:10153000120380913105909132058136910521F099
:1015400083B1869580FF13C00E94B004039779F49D
:10155000609148057091490580914A0590914B052D
:1015600020E030E040E050E40E94871A1BC08091E8
:101570003105909132058436910511F0489B1FC0CA
:101580000E94B0040397D9F4609148057091490511
:1015900080914A0590914B0520E030E040E050E416
:1015A0000E94881A609348057093490580934A0504
:1015B00090934B0588E495E00E948309A8C0809130
:1015C0003105909132058737910521F089B18695D3
:1015D00080FF9DC0609115037091160380911703E1
:1015E00090911803E0908400F09085000E94891B80
:1015F00020E030E040E857E40E943F1C5B016C01B2
:1016000000E010E0C801B7010E94891B9B01AC01FA
:10161000C601B5010E94881A2DEB37E346E054E37A
:101620000E943F1C7B018C016091F0027091F102DD
:101630008091F2029091F30220E030E040E85FE315
:101640000E94881A9B01AC01C801B7010E943B1C93
:1016500018160CF05CC00E94B004039709F057C044
:1016600060911503709116038091170390911803F0
:10167000E0908400F09085000E94891B20E030E01B
:1016800040E857E40E943F1C5B016C0100E010E061
:10169000C801B7010E94891B9B01AC01C601B501BD
:1016A0000E94881A2DEB37E346E054E30E943F1C6A
:1016B0006093F0027093F1028093F2029093F30230
:1016C0000E94B004029719F100E010E01092D902D4
:1016D00060914C0570914D0580914E0590914F059C
:1016E00020E030E040E85FE30E94871A60934C05F9
:1016F00070934D0580934E0590934F0588E495E0D7
:101700000E9483090F5F1F4F0D301105F9F688E421
:1017100095E00E9429131F910F91FF90EF90DF90A9
:10172000CF90BF90AF909F908F907F906F900895D3
:10173000EF92FF920F931F930E94B004039724F53A
:10174000E0904C05F0904D0500914E0510914F052D
:10175000C801B70120E030E044E452E40E94EC1AF2
:1017600088230CF043C0C801B70120E030E040E816
:101770005FE30E94881A60934C0570934D05809337
:101780004E0590934F0532C00E94B004039771F547
:101790005091FC024091FD023091FE022091FF0227
:1017A000B0915005A091510570915205609153057B
:1017B000E7E2F3E0808191818130910511F0892B7E
:1017C00011F4DA01B901329683E0EF34F80791F7AA
:1017D0002B2F3A2F472F562FC901DA01809350053E
:1017E00090935105A0935205B093530588E495E07A
:1017F0000E9483091F910F91FF90EF9008951F930E
:1018000083E395E00E94291380911103882399F5C1
:1018100060913305709134058091350590913605BE
:1018200020E030E040E050E40E94881A60933305E5
:1018300070933405809335059093360511E010932D
:10184000D70283E395E00E9483096091330570918C
:101850003405809135059091360520E030E04EE961
:1018600052E40E943B1C18160CF051C01093110357
:101870001092D8024CC08091D802882391F56091D3
:10188000330570913405809135059091360520E03F
:1018900030E040E050E40E94871A60933305709373
:1018A000340580933505909336051092D70283E373
:1018B00095E00E9483096091330570913405809111
:1018C00035059091360520E030E040E85FE30E9466
:1018D000EC1A8823E4F481E08093D802109211037B
:1018E00016C0609133057091340580913505909153
:1018F000360520E030E040E050E00E94881A609316
:1019000033057093340580933505909336058091A7
:101910003105909132058437910531F08FB1829570
:101920008695877080FF1BC08091D602882341F086
:1019300081E0809311038093D8021092D6020FC0E9
:101940008091D702882321F01092110381E005C015
:1019500081E0809311031092D8028093D6021F91E8
:1019600008952F923F924F925F926F927F928F9243
:101970009F92AF92BF92CF92DF92EF92FF920F931E
:101980001F93CF93DF93C4E6D3E0B7E2AB2EB3E06F
:10199000BB2EA1E0CA2ED12C0F2EF0E02F2EF0E0AE
:1019A0003F2EF8EA4F2EF2E45F2EF02D0F2EF0E0DE
:1019B0006F2EF0E07F2EF0E28F2EF1EC9F2EF02DB7
:1019C000E880F9800A811B81C801B70120E030E07E
:1019D0004AEB52E40E943B1C18162CF46882798270
:1019E0008A829B8247C0C801B70120E030E048E905
:1019F00051EC0E94EC1A88232CF4288239824A8206
:101A00005B8238C086E0C816D10444F0C601069750
:101A10000597D8F0C6010B97059798F48091FC02C2
:101A20009091FD02A091FE02B091FF0288879987F4
:101A3000AA87BB87CE010E948309F501118210821B
:101A400019C0C60140970597A8F48091FC029091B7
:101A5000FD02A091FE02B091FF02B05888879987DD
:101A6000AA87BB87CE010E94830981E090E0F5013F
:101A700091838083CE010E9429130894C11CD11C3C
:101A80006596E2E0F0E0AE0EBF1EF5E1CF16D104A0
:101A900009F096CFDF91CF911F910F91FF90EF90BA
:101AA000DF90CF90BF90AF909F908F907F906F907E
:101AB0005F904F903F902F900895DF92EF92FF92AA
:101AC0000F931F93182FD62E8DB79EB70A970FB678
:101AD000F8949EBF0FBE8DBFEDB7FEB731968DE176
:101AE000E82E85E0F82EADB7BEB71296FC92EE92C6
:101AF000119784E190E0938382838AE291E0958359
:101B0000848326833783408751870E94C91F8DB7FE
:101B10009EB70A960FB6F8949EBF0FBE8DBF812F59
:101B200090E06D2D70E0A701202F0E94AA121F9156
:101B30000F91FF90EF90DF900895DC010D90002051
:101B4000E9F71197A81BB90BBD010E943214089543
:101B50000F931F932DB73EB7285030400FB6F8941F
:101B60003EBF0FBE2DBFEDB7FEB7319609E113E0C2
:101B7000ADB7BEB712961C930E93119728E030E0D4
:101B8000338322832FE231E0358324839783868356
:101B90000E94C91F2DB73EB7285F3F4F0FB6F8947C
:101BA0003EBF0FBE2DBFC8010E949D0D1F910F911A
:101BB00008951F93E1E6F0E080E8808311E0108350
:101BC0000E946B0882E391E00E949D0D8091D002FB
:101BD0009091D1020E94A80D88E591E00E949D0D90
:101BE0008091D2029091D3020E94A80D8BE591E0E2
:101BF0000E949D0D8FE20E94B4020E94E5020E94A5
:101C00002703109280001093810010936F00789446
:101C1000ECE7F0E0808180648083EAE7F0E0808197
:101C2000876880830E9477080E94CD071F910895DE
:101C3000EF92FF920F931F930E945406882319F08E
:101C40008FE591E08EC060914C0570914D058091BB
:101C50004E0590914F0520E030E044E452E40E94AC
:101C60003B1C87FF1CC0E0904805F090490500919F
:101C70004A0510914B05C801B70120E030E048EA61
:101C800052E40E943B1C181654F0C801B70120E032
:101C900030E040E050E00E94EC1A88231CF483EB13
:101CA00091E05FC080911203882329F01092120303
:101CB00081EE91E039C080911303882309F449C073
:101CC0001092130383E092E00E949D0D87E292E060
:101CD0000E949D0D80910803909109030E94A80D18
:101CE00086E891E00E949D0D8091CE029091CF02F6
:101CF0000E94A80D81EA91E00E949D0D80910A0347
:101D000090910B030E94A80D8EEA91E00E949D0D18
:101D100080910C0390910D030E94A80D80EB91E03F
:101D20000E949D0D8FE292E00E949D0D8091D00255
:101D30009091D1020E94A80D88E591E00E949D0D2E
:101D40008091D2029091D3020E94A80D8BE591E080
:101D500055C080910F038823E9F010920F0381E4AE
:101D600092E00E949D0D86E891E00E949D0D809179
:101D7000CE029091CF020E94A80D88E991E00E94C6
:101D80009D0D80910803909109030E94A80D81EA9E
:101D900091E020C080911403882391F110921403E4
:101DA00082E592E00E949D0D86E692E00E949D0DE4
:101DB0008091CE029091CF020E94A80D8CE792E014
:101DC0000E949D0D80910803909109030E94A80D27
:101DD00083E992E00E949D0D80910A0390910B038C
:101DE0000E94A80D8EEA91E00E949D0D80910C0347
:101DF00090910D030E94A80D80EB91E00E949D0D33
:101E00001F910F91FF90EF9008950E94171488235F
:101E100039F00E94F21390933205809331050895B2
:101E2000109232051092310508952F923F924F92F1
:101E30005F926F927F928F929F92AF92BF92CF925A
:101E4000DF92EF92FF920F931F93DD24D3940F2E16
:101E5000F0E02F2EF0E03F2EF0E04F2EF0E05F2E6E
:101E6000F02DE6C00E94050F0E940812D0921403C4
:101E700080E090E060E070E04EEA52E021E00E94F5
:101E8000AA1280E090E06AE070E047E252E021E0D0
:101E90000E94AA126091080370910903882777FDB8
:101EA0008095982F0E948B1B9B01AC018EE16AE00C
:101EB00001E00E945D0D80E090E064E170E04BEB9A
:101EC00052E021E00E94AA1260910A0370910B0374
:101ED000882777FD8095982F0E948B1B9B01AC0172
:101EE00088E164E10E945D0D84E290E064E170E0CD
:101EF0004EEA51E021E00E94AA1260910C03709119
:101F00000D03882777FD8095982F0E948B1B9B01DE
:101F1000AC0188E264E10E945D0D0E94CD127E99C1
:101F200007C080913105909132058137910571F498
:101F30000E94081280E090E060E070E04CE051E028
:101F400021E00E94AA120E94CD12F4CF7D9904C014
:101F50008237910509F06CC01092090310920803B2
:101F60002092F4023092F5024092F6025092F7026B
:101F700010920B0310920A0310920D0310920C039F
:101F80008AE090E09093CF028093CE026091D002DD
:101F90007091D102882777FD8095982F0E948B1B26
:101FA0003B014C016091D2027091D302882777FDEA
:101FB0008095982F0E948B1B7B018C018EE291E013
:101FC00064E070E00E94E0125C0188E495E0B401F6
:101FD000A30198018701A3E0EA2EF4E0CF2E0E942E
:101FE00001138EE291E064E070E00E94E0120E9432
:101FF000F61D82E391E063E070E00E94E0125C0174
:1020000083E395E040E050E060E070E000E010E045
:1020100024E332E4E3E0CE2E0E94011382E391E058
:1020200063E070E00E94E0120E94F61DD092450528
:102030008091CE029091CF02892B09F413CF1F918A
:102040000F91FF90EF90DF90CF90BF90AF909F9057
:102050008F907F906F905F904F903F902F9008955A
:10206000AF92BF92CF92DF92EF92FF920F931F93A6
:1020700080913105909132058037910511F0189BC0
:102080008CC180910E03882309F087C160911503EC
:10209000709116038091170390911803E0908400CB
:1020A000F09085000E94891B20E030E040E857E472
:1020B0000E943F1C5B016C0100E010E0C801B70109
:1020C0000E94891B9B01AC01C601B5010E94881AC0
:1020D0002DEB37E346E054E30E943F1C7B018C016B
:1020E0006091EC027091ED028091EE029091EF020E
:1020F00020E030E040E85FE30E94881A9B01AC01D9
:10210000C801B7010E943B1C18160CF046C181E0C3
:1021100080930E0380930F038091F4029091F50257
:10212000A091F602B091F7028093EC029093ED0239
:10213000A093EE02B093EF020E94081269C00E94C1
:10214000050F80E090E060E070E042EC52E021E0BA
:102150000E94AA126091CE027091CF02882777FD6B
:102160008095982F0E948B1B9B01AC018CE160E055
:1021700001E00E945D0D80E090E06AE070E04BEBD2
:1021800052E021E00E94AA1260910A0370910B03B1
:10219000882777FD8095982F0E948B1B9B01AC01AF
:1021A00088E16AE00E945D0D84E290E06AE070E000
:1021B0004EEA51E021E00E94AA1260910C03709156
:1021C0000D03882777FD8095982F0E948B1B9B011C
:1021D000AC0188E26AE00E945D0D80E090E064E17D
:1021E00070E047E252E021E00E94AA1260910803E9
:1021F00070910903882777FD8095982F0E948B1B8B
:102200009B01AC018EE164E10E945D0D0E94CD1244
:1022100080913105909132058037910511F0189B1E
:10222000B7C080910E03882309F089CFB1C00E9406
:10223000050F80E090E060E070E042EC52E021E0C9
:102240000E94AA126091CE027091CF02882777FD7A
:102250008095982F0E948B1B9B01AC018CE160E064
:1022600001E00E945D0D80E090E06AE070E04BEBE1
:1022700052E021E00E94AA1260910A0370910B03C0
:10228000882777FD8095982F0E948B1B9B01AC01BE
:1022900088E16AE00E945D0D84E290E06AE070E00F
:1022A0004EEA51E021E00E94AA1260910C03709165
:1022B0000D03882777FD8095982F0E948B1B9B012B
:1022C000AC0188E26AE00E945D0D80E090E064E18C
:1022D00070E047E252E021E00E94AA1260910803F8
:1022E00070910903882777FD8095982F0E948B1B9A
:1022F0009B01AC018EE164E10E945D0D0E94CD1254
:1023000080913105909132058037910511F0189B2D
:102310003FC010920E032098609115037091160330
:102320008091170390911803E0908400F09085004D
:102330000E94891B20E030E040E857E40E943F1CE7
:102340005B016C0100E010E0C801B7010E94891B2D
:102350009B01AC01C601B5010E94881A2DEB37E341
:1023600046E054E30E943F1C2091EC023091ED02C4
:102370004091EE025091EF020E94871A6093F8029A
:102380007093F9028093FA029093FB020E94081264
:1023900080910E03882309F04ACF20981F910F9156
:1023A000FF90EF90DF90CF90BF90AF9008950E9484
:1023B000F0060E94980B0E944A030E949E060E940B
:1023C00030100E94B10C0E94190A0E94FF0B0E945B
:1023D000B0040E942B070E9469030E94050F0E940F
:1023E000150F0E94180E0895CF93DF930E94D90D08
:1023F000C8ECD0E00E9408120E94D7110E94CD12B2
:1024000088EE93E0FE013197F1F70197D9F7F2CF0B
:10241000EDE5F5E0119287E0E535F807D9F7089585
:102420009C0197FD37C077FD35C08435910594F543
:10243000603371057CF5CB0153E0959587955A95EE
:10244000E1F76770442399F0E4E58E9FF0011124D1
:10245000E20FF31FE35AFA4F81E090E002C0880FC9
:10246000991F6A95E2F72081282B20830895E4E5DF
:102470008E9FF0011124E20FF31FE35AFA4F81E01F
:1024800090E002C0880F991F6A95E2F7809520813D
:102490002823208308955F926F927F928F929F925C
:1024A000AF92BF92CF92DF92EF92FF920F931F9362
:1024B000CF93DF934B01522E25E0429FA0011124C0
:1024C000EDE9EE2EE0E0FE2EE40EF51E8C0171E04B
:1024D000672E712C62EAA62E60E0B62EA40EB51E01
:1024E000F7018491552009F48095C0E0D0E0C82E12
:1024F000DD24BE01680D791DA3010C2E02C0440F1E
:10250000551F0A94E2F74C215D210C2E02C055950F
:1025100047950A94E2F7C8010E9410122196C8302C
:10252000D10539F70894E11CF11C0F5F1F4FEA1425
:10253000FB04B1F6DF91CF911F910F91FF90EF90C7
:10254000DF90CF90BF90AF909F908F907F906F90D3
:102550005F900895DF92EF92FF920F931F93CF93B6
:10256000DF937B01EA01D22E082F10E008C0802FF4
:1025700090E0B7012D2D0E944B120B5F1F5FFE01F3
:10258000E10FF11D4081442391F7DF91CF911F911D
:102590000F91FF90EF90DF900895CF93DF9380E04D
:1025A00060E00E94F502CDE5D5E081E069910E94EE
:1025B000930287E0C535D807C1F7DF91CF91089521
:1025C0000F931F93CF93DF938C01EB01CB010E94FC
:1025D000491D9C01009779F080E090E009C0F80166
:1025E000E80FF91FE491D901A80FB91FEC930196E8
:1025F0008C179D07A4F3C901DF91CF911F910F9113
:102600000895AF92BF92CF92EF920F931F93FC0168
:1026100040835183628373830483158326833783C6
:10262000E08AC18AB48AA38A81E0828B80E090E04C
:10263000A0E0B0E080879187A287B38784879587E1
:10264000A687B7871F910F91EF90CF90BF90AF9063
:1026500008952F923F924F925F926F927F928F9246
:102660009F92AF92BF92CF92DF92EF92FF920F9321
:102670001F93CF93DF938C01DC0152968C9152977C
:10268000882309F480C06D917D918D919C910E9469
:10269000A21C0E94581B3B01F80124813581468110
:1026A0005781643571050CF06EC0D80150968C913D
:1026B000C82FD0E0CE01860D971D181619060CF014
:1026C00062C0CA01B9010E94A21C0E94581B4B01A2
:1026D000603371050CF057C0F80181899401280F0F
:1026E000311D121613060CF04EC057E0A52EB12C6A
:1026F000AC0EBD1E43E0B594A7944A95E1F7EE24D5
:10270000FF24CC24DD2437E0232E312C30C0CE0131
:1027100023E0959587952A95E1F7D8015396ED9199
:10272000FC915497EC0DFD1DE80FF91F408150E01E
:10273000CE0187709070F101E81BF90B02C055952E
:102740004795EA95E2F74170CE01860D971DB201DB
:102750000E9410122196D80150968C9190E0C817D3
:10276000D907ACF20894E11CF11CCA0CDB1CF8017F
:10277000818990E0E816F90634F4C0E0D0E0270142
:10278000480C591CE8CFDF91CF911F910F91FF901A
:10279000EF90DF90CF90BF90AF909F908F907F9001
:1027A0006F905F904F903F902F90089581E08093BD
:1027B000D70080EA8093D80082E189BD09B400FE89
:1027C000FDCF80E98093D8001092E00010922103A1
:1027D000109222038CE08093E20078940895809117
:1027E000210308952FB7F89480912103882369F07D
:1027F00083E08093E9009BE68091E80085FD09C0B5
:1028000082FF03C09093E800F7CF2FBF2FEF3FEF79
:102810000CC09091F1008091E80085FD03C08BE62B
:102820008093E8002FBF292F30E0C90108952FB70A
:10283000F89480912103882311F490E010C083E084
:102840008093E9009091F200992349F48091E80087
:1028500082FF05C085FD03C08BE68093E8002FBF93
:10286000892F0895CF93DF93EC0180912103882372
:1028700009F41CC13FB7F89484E08093E90080918B
:102880002403882309F408C18091E80085FD02C073
:102890003FBF0CC110922403FFC09091E400975EEB
:1028A0008091E80085FD13C03FBF8091E400891747
:1028B00021F481E080932403F9C0809121038823CF
:1028C00009F4F4C03FB7F894B093E900E9CF8091E0
:1028D000F200242F281B822F90E06817790708F454
:1028E000262F822F90E08134910508F0C6C08A5AC5
:1028F0009F4FFC01EE0FFF1F0590F491E02D09940E
:1029000089918093F10089918093F100899180935E
:10291000F10089918093F10089918093F100899170
:102920008093F10089918093F10089918093F10067
:1029300089918093F10089918093F100899180932E
:10294000F10089918093F10089918093F100899140
:102950008093F10089918093F10089918093F10037
:1029600089918093F10089918093F10089918093FE
:10297000F10089918093F10089918093F100899110
:102980008093F10089918093F10089918093F10007
:1029900089918093F10089918093F10089918093CE
:1029A000F10089918093F10089918093F1008991E0
:1029B0008093F10089918093F10089918093F100D7
:1029C00089918093F10089918093F100899180939E
:1029D000F10089918093F10089918093F1008991B0
:1029E0008093F10089918093F10089918093F100A7
:1029F00089918093F10089918093F100899180936E
:102A0000F10089918093F10089918093F10089917F
:102A10008093F10089918093F10089918093F10076
:102A200089918093F10089918093F100899180933D
:102A3000F10089918093F10089918093F10089914F
:102A40008093F10089918093F10089918093F10046
:102A500089918093F10089918093F100899180930D
:102A6000F10089918093F10089918093F10089911F
:102A70008093F10089918093F10089918093F10016
:102A80008091E80085FD02C05093E800621B710947
:102A9000A09323033FBF04C0B4E040E45AE3A5E0A1
:102AA0006115710509F0F9CE80E001C08FEFDF916B
:102AB000CF9108951F920F920FB60F9211248F930A
:102AC0009F938091E1001092E100982F83FF11C045
:102AD0001092E90081E08093EB001092EC0082E11B
:102AE0008093ED0088E08093F00010922103109213
:102AF000220392FF13C080912103882379F08091F3
:102B00002303882359F0815080932303882331F4D1
:102B100084E08093E9008AE38093E8009F918F919D
:102B20000F900FBE0F901F9018951F920F920FB627
:102B30000F9211240F931F932F933F934F935F9303
:102B40006F937F938F939F93AF93BF93EF93FF9375
:102B50001092E9008091E80083FF3CC14091F100B0
:102B60003091F1008091F100682F70E02091F10028
:102B7000922F80E0682B792B8091F100A82FB0E094
:102B80002091F100922F80E0A82BB92B1091F10039
:102B90000091F10082EF8093E800363009F05AC0CE
:102BA00024E233E0A90145505040F901379785915F
:102BB00094918617970701F5FA01859194918A17E8
:102BC0009B07D1F49A012E5F3F4FF90165917491F3
:102BD0002E5F3F4FF9014491212F30E0902F80E08C
:102BE000282B392B2F3F310519F010F02FEF30E053
:102BF000241758F4422F09C0295F3F4F495F5F4FA8
:102C0000F3E02E343F0789F6E5C05EEF8091E800DF
:102C1000282F30E0C90185709070892BB9F322FD0F
:102C2000DCC0342F413108F030E1232FCB0106C046
:102C3000FC010196E491E093F10021502223C1F7B9
:102C4000630F711D431B5093E8004423F9F63031A4
:102C5000E9F2C3C0353061F48EEF8093E8008091D3
:102C6000E80080FFFCCF862F80688093E300B5C02A
:102C7000393051F5442309F0ADC06093210310921F
:102C80002203109223038EEF8093E80087E493E001
:102C900021E02093E900FC010196E491E093EB0030
:102CA000EE2369F0AC014F5F5F4FFC01849180938C
:102CB000EC00CA010196FA0134913093ED002F5FC8
:102CC000253039F78EE181C0383061F4403809F0A1
:102CD00081C08091E80080FFFCCF80912103809328
:102CE000F10050C0313289F4413A09F073C080914B
:102CF000E80080FFFCCFEBEDF2E081918093F100E2
:102D000082E0E23EF807C9F73DC03032A1F441321B
:102D100009F060C08091E80082FFFCCFEBEDF2E0AB
:102D20008091F100819382E0E23EF807C9F78BEFD2
:102D30008093E80027C0323251F4413209F04AC092
:102D4000609322038091E80080FFFCCF1BC03323F7
:102D5000E9F48091E80080FFFCCF423811F080E078
:102D60000DC0A093E9008091EB0090E025E09695DE
:102D700087952A95E1F781701092E9008093F10020
:102D80001092F1008EEF8093E80027C0313011F0EF
:102D9000333001F54230F1F4672BE1F42A2F2F771D
:102DA000822F81508430B0F48EEF8093E80020931E
:102DB000E900333079F089E18093EB0081E090E025
:102DC00002C0880F991F2A95E2F78093EA001092BB
:102DD000EA0003C081E28093EB00FF91EF91BF9185
:102DE000AF919F918F917F916F915F914F913F91A3
:102DF0002F911F910F910F900FBE0F901F9018955C
:102E0000A1E1B0E0E6E0F7E10C94FE1C3C017F8715
:102E10006E876A01FC0117821682838181FD03C0DF
:102E20006FEF7FEF6FC39E012F5F3F4F398B288B72
:102E3000F3012381EE85FF8523FD859123FF819199
:102E4000FF87EE87882309F45AC3853251F4EE8553
:102E5000FF8523FD859123FF8191FF87EE878532D2
:102E600029F490E0B3010E949D1FE2CF982F10E05B
:102E7000882499241032B0F49B3269F09C3228F4F3
:102E8000903251F0933271F40BC09D3239F090338F
:102E900049F4116028C01260146025C0186023C076
:102EA000106121C017FD2AC0892F80538A3078F421
:102EB00016FF06C0FAE09F9E902C1124980E13C0B6
:102EC0003AE0839E802C1124880E10620CC09E3242
:102ED00021F416FD14C3106406C09C3611F410686A
:102EE00002C0983659F4EE85FF8523FD959123FFA6
:102EF0009191FF87EE87992309F0BCCF892F8554E4
:102F0000833020F4812F8061905E07C0892F855621
:102F1000833008F09FC1812F8F7E86FD02C076E04E
:102F2000972E6FE3F62EF822953619F4F0E4FF2A77
:102F300007C0963619F420E8F22A02C091109A943C
:102F4000F7FE0AC03BE3391518F45CE3B52E02C066
:102F5000B92CB39427E009C047E0491520F4BB24FD
:102F600047E0942EF7CF292DBB24C60104969D87F8
:102F70008C87F6016081718182819381AE014F5F00
:102F80005F4F0B2D0E94AF1E6C010981202E332450
:102F900000FF04C003FD02C01DE209C0F1FE02C033
:102FA0001BE205C0F2FC02C010E001C010E2C1014A
:102FB0008C709070892BB9F1112311F483E001C05A
:102FC00084E0881510F088240AC0881AF3FC07C032
:102FD00080E290E0B3010E949D1F8A94C9F71123FB
:102FE00029F0812F90E0B3010E949D1F23FE03C0B2
:102FF00006EE13E00EC00AEE13E00BC0E114F1047C
:1030000009F0805290E0B3010E949D1F0F5F1F4F97
:1030100005C0EF2CFF24F0E1EF22FF24F80184919A
:10302000882361F714C1F7FE12C0BC0C24FE04C053
:103030008A81813309F4BA941B141CF0BB24B39425
:103040002DC0F8E0FB1550F538E0B32E27C0F6FC94
:1030500025C0892D90E08C159D054CF02CEFC216F3
:103060002FEFD20624F030E8F32A01C09A94992079
:1030700049F0E2E0F0E0EC0FFD1FE90DF11D808169
:103080008033A1F3F7FE0AC0B92CB394892D90E0E8
:10309000C816D90614F0992401C09C18F7FC03C087
:1030A00025E030E009C01C141D041CF021E030E0D4
:1030B00003C096012F5F3F4F112311F02F5F3F4F49
:1030C000992029F0892D90E00196280F391F882D2D
:1030D00090E02817390714F0882401C0821A4F2C79
:1030E0005524C20189709070892B39F008C080E2A4
:1030F00090E0B3010E949D1F8A948820C1F711239C
:1031000029F0812F90E0B3010E949D1F43FE07C06C
:1031100008C080E390E0B3010E949D1F8A9488203C
:10312000C1F7F7FE46C08601D7FE02C000E010E0FE
:1031300076010894E11CF11CE01AF10A41E050E02C
:103140004C0F5D1FE40EF51E26014B185108892D0A
:1031500090E0AA24BB24A81AB90A5FEF0F3F150715
:1031600029F48EE290E0B3010E949D1FC016D106A3
:1031700034F0401651061CF4F701808101C080E351
:10318000015010400894E11CF11C0A151B052CF09D
:1031900090E0B3010E949D1FE0CF0C151D0539F48E
:1031A0009A81963318F4953311F424FE81E390E06C
:1031B0004BC08A81813309F00F7E90E0B3010E94F9
:1031C0009D1F9920A1F08EE290E0B3010E949D1F07
:1031D00012E0E1E0F0E0EC0FFD1FE10FF11D1F5FD9
:1031E000808190E0B3010E949D1F9A9491F744FC66
:1031F00003C085E690E002C085E490E0B3010E9440
:103200009D1FD7FC05C0C114D10441F404FF06C0C2
:10321000D094C194D108D3948DE201C08BE290E0A8
:10322000B3010E949D1F80E305C08F5F26EF3FEF33
:10323000C20ED31E3AE0C316D104BCF790E0B3012E
:103240000E949D1FC601C096B3010E949D1FCC84A1
:10325000DD8452C1933631F0933799F0933509F0FC
:1032600059C023C0F601808189835E010894A11CA6
:10327000B11C22E030E0C20ED31E21E0E22EF12C80
:1032800012C0F601A080B18016FD03C06FEF7FEF82
:1032900002C0692D70E022E030E0C20ED31EC501ED
:1032A0000E94921F7C011F7713C0F601A080B1809D
:1032B00016FD03C06FEF7FEF02C0692D70E022E0C2
:1032C00030E0C20ED31EC5010E94871F7C0110682A
:1032D00013FF07C01BC080E290E0B3010E949D1F56
:1032E0008A94882D90E0E816F906A8F30FC0F5013E
:1032F00017FD859117FF81915F0190E0B3010E9456
:103300009D1F81108A940894E108F108E114F104EA
:1033100071F7F2C0943611F0993689F517FF08C09D
:10332000F601208131814281538184E090E00AC01E
:10333000F601808191819C01442737FD4095542FEF
:1033400082E090E0C80ED91E9FE6F92EF12257FFC9
:1033500009C050954095309521953F4F4F4F5F4F95
:1033600090E8F92ACA01B901AE014F5F5F4F2AE028
:1033700030E00E94FA1FE82EE889EE1A41C0953726
:1033800021F41F7E2AE030E01CC0197F9F3661F0D7
:10339000903720F4983509F0B2C00FC0903739F05B
:1033A000983709F0ACC004C028E030E00AC01061D2
:1033B00014FD146020E130E004C014FD166020E12B
:1033C00032E017FF08C0F60160817181828193812C
:1033D00044E050E008C0F60180819181BC0180E0AA
:1033E00090E042E050E0C40ED51EAE014F5F5F4F4B
:1033F0000E94FA1FE82E5889E51A8FE7F82EF1226D
:10340000F6FE0BC08EEFF822E91438F4F4FE07C084
:10341000F2FC05C09FEEF92202C01E2D01C0192D3D
:10342000F4FE0DC0FE01EE0DF11D8081803319F414
:10343000E9EEFE2208C01F5FF2FE05C003C08F2D1B
:10344000867809F01F5F0F2DF3FC14C0F0FE0FC04B
:10345000181510F09E2C0BC09E2C980C911A182D4C
:1034600006C080E290E0B3010E949D1F1F5F181507
:10347000C0F304C0181510F4811A01C0882404FF99
:103480000FC080E390E0B3010E949D1F02FF1DC0AA
:1034900001FD03C088E790E00EC088E590E00BC016
:1034A000802F867891F001FF02C08BE201C080E29C
:1034B000F7FC8DE290E0B3010E949D1F06C080E3FF
:1034C00090E0B3010E949D1F9A94E914C0F3EA941E
:1034D000E1E0F0E0EC0FFD1FEE0DF11D808190E0CA
:1034E000B3010E949D1FEE2091F706C080E290E09C
:1034F000B3010E949D1F8A948820C1F799CCF301E3
:1035000066817781CB016196E2E10C941A1D5058D7
:10351000BB27AA270ED075C166D130F06BD120F041
:1035200031F49F3F11F41EF45BC10EF4E095E7FB0C
:1035300051C1E92F77D180F3BA1762077307840767
:10354000950718F071F49EF58FC10EF4E0950B2EDF
:10355000BA2FA02D0B01B90190010C01CA01A001E5
:103560001124FF27591B99F0593F50F4503E68F140
:103570001A16F040A22F232F342F4427585FF3CF81
:10358000469537952795A795F0405395C9F77EF452
:103590001F16BA0B620B730B840BBAF09150A1F09B
:1035A000FF0FBB1F661F771F881FC2F70EC0BA0F21
:1035B000621F731F841F48F4879577956795B795A9
:1035C000F7959E3F08F0B3CF9395880F08F09927A1
:1035D000EE0F979587950895D9D008F481E0089566
:1035E0000CD00FC107D140F0FED030F021F45F3F86
:1035F00019F0F0C0511139C1F3C014D198F39923D7
:10360000C9F35523B1F3951B550BBB27AA276217A6
:103610007307840738F09F5F5F4F220F331F441FEB
:10362000AA1FA9F333D00E2E3AF0E0E830D0915023
:103630005040E695001CCAF729D0FE2F27D0660F10
:10364000771F881FBB1F261737074807AB07B0E84F
:1036500009F0BB0B802DBF01FF2793585F4F2AF065
:103660009E3F510568F0B6C000C15F3FECF3983E45
:10367000DCF3869577956795B795F7959F5FC9F7C2
:10368000880F911D9695879597F90895E1E0660F4B
:10369000771F881FBB1F621773078407BA0720F0C4
:1036A000621B730B840BBA0BEE1F88F7E09508952D
:1036B00004D06894B111D9C00895BCD088F09F5748
:1036C00090F0B92F9927B751A0F0D1F0660F771F6E
:1036D000881F991F1AF0BA95C9F712C0B13081F04E
:1036E000C3D0B1E00895C0C0672F782F8827B85F96
:1036F00039F0B93FCCF3869577956795B395D9F7AF
:103700003EF490958095709561957F4F8F4F9F4FB8
:103710000895E89409C097FB3EF4909580957095C4
:1037200061957F4F8F4F9F4F9923A9F0F92F96E90D
:10373000BB279395F695879577956795B795F11182
:10374000F8CFFAF4BB0F11F460FF1BC06F5F7F4F1F
:103750008F4F9F4F16C0882311F096E911C0772331
:1037600021F09EE8872F762F05C0662371F096E83A
:10377000862F70E060E02AF09A95660F771F881F09
:10378000DAF7880F9695879597F90895990F0008AD
:10379000550FAA0BE0E8FEEF16161706E807F90723
:1037A000C0F012161306E407F50798F0621B730BBE
:1037B000840B950B39F40A2661F0232B242B252B3F
:1037C00021F408950A2609F4A140A6958FEF811DE2
:1037D000811D089597F99F6780E870E060E0089583
:1037E0009FEF80EC089500240A9416161706180619
:1037F0000906089500240A941216130614060506F5
:103800000895092E0394000C11F4882352F0BB0F85
:1038100040F4BF2B11F460FF04C06F5F7F4F8F4FE8
:103820009F4F089557FD9058440F551F59F05F3F23
:1038300071F04795880F97FB991F61F09F3F79F0D2
:1038400087950895121613061406551FF2CF469554
:10385000F1DF08C0161617061806991FF1CF8695D6
:103860007105610508940895E894BB2766277727BA
:10387000CB0197F908958ADF08F48FEF08950BD0F4
:10388000C0CFB1DF28F0B6DF18F0952309F0A2CF42
:10389000A7CF1124EACFC6DFA0F3959FD1F3950FF0
:1038A00050E0551F629FF001729FBB27F00DB11DC4
:1038B000639FAA27F00DB11DAA1F649F6627B00D54
:1038C000A11D661F829F2227B00DA11D621F739F3D
:1038D000B00DA11D621F839FA00D611D221F749F4B
:1038E0003327A00D611D231F849F600D211D822F92
:1038F000762F6A2F11249F5750408AF0E1F08823D9
:103900004AF0EE0FFF1FBB1F661F771F881F9150E5
:103910005040A9F79E3F510570F05CCFA6CF5F3FA6
:10392000ECF3983EDCF3869577956795B795F79518
:10393000E7959F5FC1F7FE2B880F911D96958795A0
:1039400097F9089577DFE0F09E37D8F09639B8F40C
:103950009E3848F4672F782F8827985FF9CF86958F
:103960007795679593959539D0F3B62FB1706B0F16
:10397000711D811D20F4879577956795939502C0F9
:103980001CC073CF882371F4772321F09850872BC4
:10399000762F07C0662311F499270DC09051862B0E
:1039A00070E060E02AF09A95660F771F881FDAF7BB
:1039B000880F9695879597F908959F3F31F091501C
:1039C00020F4879577956795B795880F911D969503
:1039D000879597F9089597FB092E07260AD077FD5A
:1039E00004D043D006D000201AF4709561957F4F23
:1039F0000895F6F7909581959F4F08952F923F92E5
:103A00004F925F926F927F928F929F92AF92BF92EE
:103A1000CF92DF92EF92FF920F931F93CF93DF939A
:103A2000CDB7DEB7CA1BDB0B0FB6F894DEBF0FBEF7
:103A3000CDBF09942A88398848885F846E847D8444
:103A40008C849B84AA84B984C884DF80EE80FD8046
:103A50000C811B81AA81B981CE0FD11D0FB6F894BC
:103A6000DEBF0FBECDBFED010895AA1BBB1B51E108
:103A700007C0AA1FBB1FA617B70710F0A61BB70BDE
:103A8000881F991F5A95A9F780959095BC01CD0183
:103A90000895CF93DF93BC018230910510F462E06A
:103AA00070E0A0915707B0915807ED01E0E0F0E019
:103AB00040E050E021C0888199818617970769F41A
:103AC0008A819B81309719F09383828304C09093FD
:103AD000580780935707FE0134C06817790738F4F8
:103AE0004115510519F08417950708F4AC01FE0142
:103AF0008A819B819C01E9012097E9F641155105D6
:103B0000A9F1CA01861B970B049708F4BA01E0E0FB
:103B1000F0E02AC08D919C91119784179507F9F4D4
:103B20006417750781F412968D919C9113973097C5
:103B300019F09383828304C09093580780935707AA
:103B4000FD0132964FC0CA01861B970BFD01E80F9D
:103B5000F91F6193719302978D939C9343C0FD016C
:103B6000828193819C01D9011097A1F6809155071C
:103B700090915607892B41F48091E4029091E502DF
:103B800090935607809355074091E6025091E702C3
:103B90004115510541F44DB75EB78091E202909115
:103BA000E302481B590B2091550730915607241703
:103BB0003507B0F4CA01821B930B8617970780F074
:103BC000AB014E5F5F4F8417950750F0420F531FB4
:103BD0005093560740935507F9016193719302C0C2
:103BE000E0E0F0E0CF01DF91CF910895CF93DF9334
:103BF000009709F450C0EC0122971B821A82A09111
:103C00005707B0915807109709F140E050E0AC1702
:103C1000BD0708F1BB83AA83FE0121913191E20F18
:103C2000F31FAE17BF0779F48D919C911197280F60
:103C3000391F2E5F3F4F3983288312968D919C91B7
:103C400013979B838A834115510571F4D0935807CC
:103C5000C093570720C012968D919C911397AD0188
:103C6000009711F0DC01D3CFFA01D383C2832191F5
:103C70003191E20FF31FCE17DF0769F48881998134
:103C8000280F391F2E5F3F4FFA01318320838A812D
:103C90009B8193838283DF91CF910895A0E0B0E070
:103CA000E4E5FEE10C94061DEC01A880B980CA8011
:103CB000DB80A114B104C104D10441F484E2A82E34
:103CC00089EDB82E8BE5C82E87E0D82EC601B50148
:103CD0002DE133EF41E050E00E94772027EA31E404
:103CE00040E050E00E9458207B018C01C601B501E4
:103CF0002DE133EF41E050E00E947720CA01B90185
:103D00002CEE34EF4FEF5FEF0E9458206E0D7F1DB9
:103D1000801F911F97FF04C0615070408040904801
:103D2000688379838A839B839B013F77C901CDB7E1
:103D3000DEB7EAE00C94221D0E944E1E089588EE24
:103D400092E00E944E1E0895A0E0B0E08093E80249
:103D50009093E902A093EA02B093EB020895283011
:103D600008F027E03327DA01990F311D87FD9160B4
:103D700000966105710539F432602E5F3D9330E3A2
:103D80002A95E1F708959F3F30F08038710561056D
:103D900009F03C5F3C5F3D93913008F08068911DD5
:103DA000DF93CF931F930F93FF92EF92192F987F7A
:103DB0009695E92F96959695E90FFF27E85BFB4FBF
:103DC00099273327EE24FF24A701E70105900894E3
:103DD000079428F4360FE71EF81E491F511D660F81
:103DE000771F881F991F0694A1F70590079428F460
:103DF000E70EF81E491F561FC11D770F881F991F18
:103E0000661F0694A1F70590079428F4F80E491F41
:103E1000561FC71FD11D880F991F661F771F069455
:103E2000A1F70590079420F4490F561FC71FD81F0C
:103E3000990F661F771F881F0694A9F78491109524
:103E4000177041F0D695C79557954795F794E79425
:103E50001A95C1F7EEEEF3E068941590159135913F
:103E60006591959105907FE27395E118F10A430BF6
:103E7000560BC90BD009C0F7E10CF11E431F561FAA
:103E8000C91FD01D7EF4703311F48A95E6CFE894F3
:103E9000015030F0080F0AF40027021708F4202F11
:103EA0002395022F7A3328F079E37D932A95E9F759
:103EB00010C07D932A9589F6069497956795379556
:103EC00017951794E118F10A430B560BC90BD0094B
:103ED00098F023957E9173957A3308F070E37C9384
:103EE0002013B8F77E9170617D9330F0839571E374
:103EF0007D9370E32A95E1F71124EF90FF900F91E5
:103F00001F91CF91DF91992787FD90950895FC012E
:103F10000590615070400110D8F7809590958E0FF4
:103F20009F1F0895FC016150704001900110D8F767
:103F3000809590958E0F9F1F08950F931F93CF9399
:103F4000DF938C01EB018B8181FF1BC082FF0DC0D1
:103F50002E813F818C819D812817390764F4E88187
:103F6000F9810193F983E88306C0E885F985802FFC
:103F70000995892B31F48E819F8101969F838E83D1
:103F800002C00FEF1FEFC801DF91CF911F910F917A
:103F90000895AEE0B0E0EFECFFE10C940C1D0D894C
:103FA0001E898F89988D97FF02C080E090E8019765
:103FB0009E838D831A83098386E08C839E01255E10
:103FC0003F4FCE010196698D7A8DA9010E9400179D
:103FD0004D815E8157FD0AC02F81388542175307F6
:103FE0000CF49A01020F131FF80110822E96E4E0E0
:103FF0000C94281DFA01AA27283051F1203181F1B3
:10400000E8946F936E7F6E5F7F4F8F4F9F4FAF4FE0
:10401000B1E03ED0B4E03CD0670F781F891F9A1FF3
:10402000A11D680F791F8A1F911DA11D6A0F711DA7
:10403000811D911DA11D20D009F468943F912AE0B3
:10404000269F11243019305D3193DEF6CF0108959B
:10405000462F4770405D4193B3E00FD0C9F7F6CFCC
:10406000462F4F70405D4A3318F0495D31FD405294
:10407000419302D0A9F7EACFB4E0A695979587952A
:1040800077956795BA95C9F7009761057105089509
:104090009B01AC010A2E06945795479537952795B5
:1040A000BA95C9F7620F731F841F951FA01D08954D
:1040B000629FD001739FF001829FE00DF11D649F0C
:1040C000E00DF11D929FF00D839FF00D749FF00D98
:1040D000659FF00D9927729FB00DE11DF91F639F39
:1040E000B00DE11DF91FBD01CF011124089597FB0B
:1040F000092E05260ED057FD04D014D00AD0001C7E
:1041000038F450954095309521953F4F4F4F5F4F74
:104110000895F6F790958095709561957F4F8F4F34
:104120009F4F0895A1E21A2EAA1BBB1BFD010DC0D3
:10413000AA1FBB1FEE1FFF1FA217B307E407F50757
:1041400020F0A21BB30BE40BF50B661F771F881F33
:10415000991F1A9469F760957095809590959B01C9
:0C416000AC01BD01CF010895F894FFCF21
:10416C004D61736F6E2054726F7574004E31303127
:10417C003730373931005072657373205357322002
:10418C00746F00426567696E210025322E6600252A
:10419C0064004576656E743A2047616D65205374F2
:1041AC006172742E200A506C6179657220506F73A5
:1041BC006974696F6E3A20002C20002E0D0A0045A0
:1041CC0076656E743A20506C617965722044656135
:1041DC0074682062792042616420506C6174666F4F
:1041EC00726D2E0D0A004C697665732052656D61F7
:1041FC00696E696E673A20000A53636F72653A20E4
:10420C00000A47616D652054696D653A20003A00DB
:10421C000D0A004576656E743A20506C61796572B2
:10422C0020446561746820627920476F696E67204D
:10423C004F7574206F6620426F756E64732E0D0A75
:10424C00004576656E743A205265737061776E2EF8
:10425C000A506C6179657220506F736974696F6E66
:10426C003A20004576656E743A20506C617965721F
:10427C0020436F6C6C656374656420547265617364
:10428C007572652E0D0A0053636F72653A200050EB
:10429C006C6179657220506F736974696F6E3A2026
:1042AC00004576656E743A205061757365642E0D09
:1042BC000A004576656E743A2047616D65204F762D
:1042CC0065722E0D0A004C697665732046696E691D
:1042DC007368656420576974683A20000A53636FE9
:1042EC0072652046696E69736865642057697468E5
:1042FC003A20000A47616D652054696D6520466956
:10430C006E697368656420576974683A2000474188
:10431C004D45204F564552203A280054696D653A58
:10432C0020004C697665733A20000A000A000A00E6
:10433C000D0005000100010101010100E100000078
:0C434C00000820005907000001000000DC
:00000001FF